{
  "contractName": "Counter",
  "abi": [
    {
      "inputs": [],
      "name": "incrementCounter",
      "outputs": [],
      "stateMutability": "nonpayable",
      "type": "function"
    },
    {
      "inputs": [],
      "name": "decrementCounter",
      "outputs": [],
      "stateMutability": "nonpayable",
      "type": "function"
    },
    {
      "inputs": [],
      "name": "addMoney",
      "outputs": [],
      "stateMutability": "payable",
      "type": "function",
      "payable": true
    },
    {
      "inputs": [],
      "name": "getCount",
      "outputs": [
        {
          "internalType": "uint256",
          "name": "",
          "type": "uint256"
        }
      ],
      "stateMutability": "view",
      "type": "function",
      "constant": true
    },
    {
      "inputs": [],
      "name": "getMoneyStored",
      "outputs": [
        {
          "internalType": "uint256",
          "name": "",
          "type": "uint256"
        }
      ],
      "stateMutability": "view",
      "type": "function",
      "constant": true
    }
  ],
  "bytecode": "0x608060405260008055600060015534801561001957600080fd5b5061015c806100296000396000f3fe60806040526004361061004a5760003560e01c80631b3f48421461004f5780635b34b96614610059578063a87d942c14610070578063e0a438fb1461009b578063f5c5ad83146100c6575b600080fd5b6100576100dd565b005b34801561006557600080fd5b5061006e6100ef565b005b34801561007c57600080fd5b50610085610101565b6040518082815260200191505060405180910390f35b3480156100a757600080fd5b506100b061010a565b6040518082815260200191505060405180910390f35b3480156100d257600080fd5b506100db610114565b005b34600160008282540192505081905550565b60016000808282540192505081905550565b60008054905090565b6000600154905090565b6001600080828254039250508190555056fea2646970667358221220b2c20047e73edf3b3020c78c599df5ecb6d4d6cd4e15836c6a117bffa0b85b3064736f6c63430007000033",
  "immutableReferences": {},
  "source": "pragma solidity >=0.4.22 <0.8.0;\n\ncontract Counter {\n    uint256 private count = 0;\n    uint256 moneyStored = 0;\n\n    function incrementCounter() public {\n        count += 1;\n    }\n    function decrementCounter() public {\n        count -= 1;\n    }\n\n    function addMoney() payable public {\n        moneyStored += msg.value;\n    }\n\n    function getCount() public view returns (uint256) {\n        return count;\n    }\n\n    function getMoneyStored() public view returns (uint256){\n        return moneyStored;\n    }\n}",
  "sourcePath": "/home/rachit/Projects/demo/contracts/Counter.sol",
  "compiler": {
    "name": "solc",
    "version": "0.7.0+commit.9e61f92b.Emscripten.clang"
  },
  "schemaVersion": "3.2.1",
  "updatedAt": "2020-11-13T15:32:39.949Z",
  "networkType": "ethereum",
  "devdoc": {
    "kind": "dev",
    "methods": {},
    "version": 1
  },
  "userdoc": {
    "kind": "user",
    "methods": {},
    "version": 1
  }
}